:10000000B7C20000D2C20000D0C200000C9484230A
:10001000CCC20000CAC20000C8C20000C6C20000B4
:10002000C4C20000C2C200000C94E3280C94AF29A3
:100030000C943222BAC20000B8C20000B6C200005E
:10004000B4C20000B2C20000B0C20000AEC20000E4
:10005000ACC200000C94A922A8C20000A6C20000F5
:10006000A4C20000A2C20000A0C200009EC2000004
:100070009CC200009AC2000098C2000096C2000014
:1000800094C2000092C2000090C200008EC2000024
:100090008CC200008AC2000088C2000086C2000034
:1000A00084C2000082C2000080C200004A6F686EF5
:1000B000436F6D70757465723A300014001A000851
:1000C000001500170004001600070009000A001DB3
:1000D000001B0006001900050029432C4200000007
:1000E0000000001C0018000C00120013000B000D93
:1000F000000E000F002B001100100036003700E149
:10010000002A4428450000000000002B0014001ABB
:100110000008001500E1000400160007000900E0D7
:10012000001D001B0006000A0027522C00000000E2
:100130000000001C0018000C00120013000B000D42
:10014000000E000F002B00110010003600370029B0
:10015000002A4428450000000000000100010001C1
:100160000001000100A252A452A152A85201001D98
:10017000011B01060119014C0001000100000000F3
:100180000000000100010001000100010001005019
:1001900000510052004F0001004A004E004B004D3C
:1001A000000100010000000000000001000100014A
:1001B0000001000100E100E200E000E3002E000188
:1001C0000001000100010001000100010000000029
:1001D00000000038002400250026002D0025022103
:1001E00000220023002E0201001E001F0020003705
:1001F00000010027000000000000001E081F08206A
:100200000821082208140A070809082C0A0A080607
:100210000A29081308170805082808E1000000004B
:1002200000000023082408250826082708080A0BD0
:10023000080D080E080F0801001008010001000158
:1002400000010001000000000000001E021F02204B
:100250000221022202340034022602270233002F38
:100260000030002F023002407E010001000000003B
:100270000000002302240225023500350233022D3E
:10028000002E003800380231002D022E023102010A
:1002900000010001000000000000003A003B003CAB
:1002A000003D003E00440045004600737C01000113
:1002B00000010001000100007C01000100000000BD
:1002C0000000003F0040004100420043000100A93F
:1002D00000AA00680069000100AE00A8000100014A
:1002E00000010001000000000000001E001F0020AF
:1002F0000021002200290001000100010017000177
:1003000000010001000100050001000100000000E3
:1003100000000001000100010001000100010001D6
:1003200000010001000100010001000100010001C5
:10033000000100010000000000000014001D00008A
:100340000014001300000000000000000000002A5C
:100350002B2800000000000000000000000000004A
:10036000000029000000002C1E3420212224342605
:1003700027252E362D3738271E1F202122232425FE
:10038000263333362E37381F0405060708090A0BB3
:100390000C0D0E0F101112131415161718191A1B25
:1003A0001C1D2F3130232D350405060708090A0BC3
:1003B0000C0D0E0F101112131415161718191A1B05
:1003C0001C1D2F3130354C000000000000000000E3
:1003D000000000000000000000000000000000001D
:1003E00000000000000000000000007E0F00D4FFAD
:1003F000FFFFC7000000781A034600650072007214
:1004000000690073002000730077006500650070CC
:1004100000000008034400500042000000040309EB
:100420000409025B00030100A0FA090400000103B3
:100430000101000921110100012244000705810387
:100440000800010904010002030000000921110154
:100450000001222200070582032000010705030393
:10046000200001090402000103000000092111011C
:100470000001227B00070584032000011201000215
:1004800000000008ABC2393901000102000106601A
:10049000FF0961A1010962150026FF00952075087A
:1004A00081020963150026FF00952075089102C09E
:1004B00005010902A10185020901A100050919012F
:1004C00029081500250195087501810205010930EB
:1004D00009311581257F9502750881060938158136
:1004E000257F950175088106050C0A3802158125BE
:1004F0007F950175088106C0C005010980A10185AD
:100500000319012AB700150126B70095017510815E
:1005100000C0050C0901A101850419012AA00215DA
:100520000126A002950175108100C005010906A1F0
:1005300001050719E029E7150025019508750181D6
:10054000029501750881010507190029FF1500268C
:10055000FF00950675088100050819012905150099
:100560002501950575019102950175039101C00062
:1005700011241FBECFEFDAE0DEBFCDBF11E0A0E057
:10058000B1E0EAECF8E502C005900D92A83EB10793
:10059000D9F723E0A8EEB1E001C01D92A937B20758
:1005A000E1F70E9448150C94092C2ACDA0E2B0E096
:1005B000ECEDF2E00C947D2BFE0133969EE111925E
:1005C0009A95E9F791E099838A8360E2CE010196DA
:1005D0000E946015A096E2E00C94992B892B39F4C7
:1005E000611529F060E08CEA90E00C94851F089575
:1005F00080349E4799F4FB018581811579F08091C3
:10060000060290910702C9D1813029F481E090E07F
:1006100069D580E0089582E090E0FACF81E0089506
:10062000CF93DF9326E045E062E09AD6EC0180911B
:100630000602909107028C2B9D2BAFD1B7DFCE0124
:10064000DF91CF910895CF93DF93EC018091040265
:10065000909105028C2B9D2BA0D1A8DFCE01DF91BC
:10066000CF910895982F962B9830B8F44530A8F480
:1006700050E095E0699F400D511D112498E2899F3B
:10068000400D511D1124FA01EE0FFF1FE554FF4FDD
:1006900085919591282F822F089521E090E0FBCF3E
:1006A000E1CF089582E090E008958230910550F402
:1006B00047E0489F9001499F300D1124C9018050A7
:1006C0009F4F089580E090E008959C0191509F31E4
:1006D000B0F4832F817034FF0AC08295807F31FD92
:1006E000806232FD806433FF0BC08068089531FD65
:1006F000826032FD846033FF03C08860089580E02B
:100700000895CF93DF93EB01E0DFFE010995DF91C0
:10071000CF910895CF93DF93EC01805E9109089704
:1007200020F063E078E0209711F46BEF75E0CE01E4
:10073000E8DF8C2FD1D1DF91CF910895CF93DF9354
:10074000EC010ED2CE01805E9109089720F068E09E
:1007500078E0209711F460E076E0CE01D2DFDF91FF
:10076000CF9108950F931F93CF93DF938C01EB01EB
:10077000D1DF209739F4C801E1DFDF91CF911F91DC
:100780000F9108958FE99FE00197F1F700C00000F5
:100790002197EFCF60E570E08933910511F060E0BB
:1007A00070E0E0CF81E0089581E00895FBCF0895E7
:1007B00081E008951DCF089508950895FDCF08950F
:1007C00008950895A6E0B0E0E8EEF3E00C947C2BE9
:1007D00049835A839E833091EF0189819A81311137
:1007E00017C03E81311589F0211579F05FD5182F9A
:1007F000682F89819A8139D569817A81812F0E94F8
:10080000F30F2696E3E00C94982B40D5182FF4CFE5
:100810004DD569817A81F3CFFC01262F87819085A0
:10082000009739F44081518162817381848195817F
:10083000C9CF0895CF93DF93EC0161E0EDDFBE01F6
:10084000B3DF811569F061E0CE01E6DFBE01AEDF06
:10085000811531F061E0CE01DFDFBE010E949C19FD
:100860008170DF91CF9108950F931F93CF93DF9302
:10087000EC0160E0D1DF8C01BE019FDFBE01C80149
:100880009DDFDF91CF911F910F9108950F931F93DB
:10089000CF93DF93EC0161E0BFDF8C01BE0188DF05
:1008A000811106C080E0DF91CF911F910F910895D3
:1008B000BE01C8017FDF8115A9F3BE01C8010E94F6
:1008C0001F17811579F3BE01C8010E9471158115AA
:1008D00049F3BE01C8010E94FF1F811519F3BE0133
:1008E000C8010E944E1B8115E9F2BE01C8010E9499
:1008F000251B8115B9F2BE01C8010E943B1181156B
:1009000089F2BE01C8010E944D11811559F2BE0144
:10091000C8010E946711C7CF21E030E002C0220F5A
:10092000331F8A95E2F7C901DDC3CF93C82F81E059
:1009300090E00C2E02C0880F991F0A94E2F70E94E3
:100940000B0E8C2FE9DFCF91089581E0089581E0AF
:100950000895FBCF0895CF93C82F70D38C2FF7DF66
:100960008C2FF7DF8FEF94E32CE0815090402040F4
:10097000E1F700C00000CF91089581E0ECDF0C9416
:10098000CD2280E0E8DF0C94DE221ADF0E94C6212F
:1009900036C037D016DF0C94CA21292F30E048E04A
:1009A000911102C09C0140E0C90164E096958795D1
:1009B0006A95E1F7009711F04C5F9C01C90196958B
:1009C000879596958795009711F04E5F9C01C90118
:1009D00096958795840F089581E008950895CF93A3
:1009E000DF93D82FF9DFC82F811511F08D2FF6DF97
:1009F0008C2FDF91CF9108950895F1CF089580E075
:100A0000FCCF0E944620F9CFCF930E944620C82FEA
:100A10008091EA018C1771F0C093EA010E949D2237
:100A20006093EB017093EC018093ED019093EE01E4
:100A30008C2FE3DFCF910895AFE0B0E0E2E2F5E084
:100A40000C947B2B4A875B876C877D878E879F877B
:100A50009111CBD71F821886198626E0FE013A969F
:100A6000CE010196DC0101900D922A95E1F72091CB
:100A70004E038C0122FF09C077D7811519F082E05F
:100A80000E94A50D58D78111F2D78D8181110EC01A
:100A900009811A812B813C814D815E816F8178852E
:100AA0008985C2D62F96E4E00C94972BC801C2DE4C
:100AB0008111EECFF7CFFC012481213019F4808120
:100AC000918127C40895611521F00E94AA1C0C94FD
:100AD0005F1D0E94EA1CFBCFCF93C82F811589F0C0
:100AE0008450813A80F48C2F0E94EC20811529F0EB
:100AF0008C2F0E942E210E947F0D8C2F0E94282176
:100B0000FED7CF9108958C2F805E883048F481E025
:100B1000C1FD84E0C0FD880FC2FD829544D7F0CFAF
:100B20008C2F855A833030F48C2F8452990B0E947D
:100B30007D20E7CFEC2FE85AEB3150F4F0E0EE0FD8
:100B4000FF1FE659FE4F808191810E94A420D9CFDA
:100B50008C2F8D5C8331A8F661E08C2FB4DFD1CF70
:100B6000811559F1982F9450913A18F40E942E2132
:100B7000C6C7982F905E983050F4982F81E091FD71
:100B800084E090FD880F92FD829513D7F1CF982FC6
:100B9000955A933020F480E090E00C947D20982FBB
:100BA000985A9B3120F480E090E00C94A420982F78
:100BB0009D5C933110F460E086CF08951F93CF932E
:100BC000DF93182FEB0188DF209731F4812FC8DFE6
:100BD000DF91CF911F9108958FE99FE00197F1F781
:100BE00000C000002197F0CF60E570E0893311F07C
:100BF00060E070E0E3CF811511F0D5D680C708958D
:100C0000811511F0D6D67BC70895A0E0B0E0EBE0E7
:100C1000F6E00C94772B6C01D62FC72FFC011581C1
:100C2000068102950F70B4D6E82E8115E9F0E12E09
:100C30001115D1F08C2F807F803461F08D2F805E74
:100C40008830E0F08C2F807E803221F4D230B0F0FA
:100C50000115A1F080914E0382FF10C082E075D78C
:100C600097D691E08927E82EEC2FE295EF70C03CF3
:100C700078F5F0E0E55FF34D0C94672BE12CF4CFB1
:100C80000C2F0F70C03110F00295007F111581F00C
:100C9000011549F08D2F805E883010F0D11105C00C
:100CA000802F81D62CD78D2F40C0802F90D6FACFA1
:100CB0008D2F56DF011561F08D2F805E883010F08A
:100CC000D11103C0802F75D602C0802F86D617D7CA
:100CD000E11409F4B3C044D680FDB0C0F60115821A
:100CE00039D62ED2C60171D135D638D2A7C08C2FB5
:100CF0008F70F82EC07FC03219F0F29480EFF82286
:100D0000D13038F079F1111509F438C00115C9F066
:100D1000CACF80914E0382FD10C0111541F0F1142D
:100D200019F08F2D40D6EBD680E0D6DED1CF80E013
:100D300017DFF11469F28F2DC6CF111551F0013074
:100D400018F48F2D58DFC4CF09F0C2CF8F2D64D691
:100D5000BFCF0111BDCF8F2D53DF8F2D73D68F2DB8
:100D60004DD6B6CF111521F0063008F0B1CFE9CF3E
:100D7000053008F0ADCF8F2D43DFAACF0115D9F391
:100D8000D93349F48FEF97EE23E081509040204013
:100D9000E1F700C000008D2FE3DE9ACF8C2F8695FF
:100DA00086958370813060F009F092CF8D2F9C2F53
:100DB0009370111102C080E090E00E94A42088CFBF
:100DC0008D2F9C2F9370111102C080E090E00E9443
:100DD0007D207ECF612F8D2F76DE7ACF8C2F837092
:100DE000C1F5111128C04D2F429546954770440F0B
:100DF000440F2D2F2F7030E0042E02C0220F331F1E
:100E00000A94E2F780E090E0D4FF09C08FE090E020
:100E100002C0880F991F4A95E2F780959095C69574
:100E2000C695C370822B932BC23079F0C33079F012
:100E3000C13049F060D10E944620DFDDCDB7DEB77A
:100E4000E8E00C94932B50D1F6CF5CD1F4CF4AD18B
:100E5000F2CF111559F1C0FFEECF4D2F42954695B7
:100E60004770440F440F2D2F2F7030E0042E02C026
:100E7000220F331F0A94E2F780E090E0D4FF09C00C
:100E80008FE090E002C0880F991F4A95E2F78095A5
:100E90009095C695C695C370822B932BC23061F096
:100EA000C33061F0C13031F07ED1C5CF823008F45B
:100EB000C2CFD3CF71D1BFCF7DD1BDCF2ED1BBCFCC
:100EC000CF70111529F08C2F3BD18D2F94DEB3CF2D
:100ED0008D2F96DE8C2F42D1AECFD23F31F168F408
:100EE000D03FC1F0D13F89F0111509F43EC0011582
:100EF00009F438C08D2FF0DD9ECFD33FE1F0D43F11
:100F000099F780914E0382FD1EC08C2F8F711115B1
:100F100011F30FC0111539F0053008F08CCF8C2F6C
:100F20008F712CD188CF0630F8CF8C2F8F71111193
:100F3000D2CF06D180CF111521F08C2F8F71F7D031
:100F40007ACFF2D078CF111529F063E08C2F8F7112
:100F5000DBD571CF81E0F9D5023008F46CCF82E0A7
:100F6000F4D569CF8C2F8F71E4CF011571F0D9338F
:100F700049F48FEF97EE23E0815090402040E1F755
:100F800000C000008D2FECDD56CF8C2F8F71A3CFCA
:100F90000F931F93CF93DF938C01FC018781908582
:100FA000009771F02BD7D82FC92F0BD19AD06D2F66
:100FB0007C2FC8012ADEDF91CF911F910F910895F8
:100FC000608171818581AED1EECFCF93DF93EC014B
:100FD0008C81811581F0CE0159DC81110FC0D8D4EC
:100FE000811549F08D81811531F080914E0382FF8A
:100FF00002C082E0AAD5DF91CF910895CE01C8DF6B
:10100000CE0132DCF8CF811511F0E1D478C5089516
:10101000811511F0E2D473C5089580E090E00E943C
:101020007D2080E090E00E94A420DFD468D50E945B
:10103000781D0C945F1D0E943421EFCFC5D4FBCFE7
:10104000282F92959F70963099F060F4925F9F7070
:10105000923030F4203FB1F038F481E0283E38F08F
:1010600080E008959A5FF3CF81E0243FC9F70895A7
:1010700091E0813F09F090E081E0283E08F080E0B7
:10108000892B089581E00895FC018481811531F058
:1010900087819085009719F0B1D6D2CF08958081CD
:1010A000918137D1FACFA6E0B0E0E9E5F8E00C9401
:1010B0007D2B2696E2E00C94992BA9E0B0E0E3E6C4
:1010C000F8E00C947B2B2996E4E00C94972B089580
:1010D000BACA0895FCDFFCDF8093060290930702F2
:1010E00008950895F7CF08952091060230910702E0
:1010F000822B932BEFCF209106023091070282239F
:101100009323E8CF2091060230910702822793278C
:10111000E1CF86CA0895DBCF0895FDDFFADF809323
:10112000040290930502089580E090E0F6CF21E05C
:1011300030E002C0220F331F8A95E2F7C901EDCFDC
:1011400021E030E002C0220F331F8A95E2F7809140
:10115000040290910502822B932BDFCF21E030E037
:1011600002C0220F331F8A95E2F7209530958091B7
:1011700004029091050282239323CFCF21E030E037
:1011800002C0220F331F8A95E2F7809104029091EA
:10119000050282279327C1CF2091040230910502D6
:1011A000822B932BBACF2091040230910502822327
:1011B0009323B3CF20910402309105028227932715
:1011C000ACCF0895CF93C1E061FDC4E060FDCC0FCA
:1011D00062FDC29593E0769567959A95E1F7660F63
:1011E000771F660F771F460F571FFA0140E050E048
:1011F00090E06191DF019C01042E02C03695279595
:101200000A94E2F72695220B26272C2326272E93D5
:101210004F5F5F4F4430510561F7CF910895A82F7C
:10122000A77023E0969587952A95E1F7880F991F77
:10123000880F991F680F791FFB0140E050E080E0A4
:10124000219130E00A2E02C0369527950A94E2F7E4
:101250002170042E01C0220F0A94EAF7822B4F5FFF
:101260005F4F4430510561F70895262F983068F498
:10127000853058F4682F70E085E0989F600D711DEF
:10128000112440EF51E0822F9DCF0895292F9830EF
:1012900058F4853048F490E060EF71E035E0239F2A
:1012A000800D911D1124BBCF80E00895CF92DF9275
:1012B000FF920F931F93CF93DF936C010091040271
:1012C000109105028091060290910702082B192BBC
:1012D000CFE0D0E081E090E00C2E02C0880F991F93
:1012E0000A94E2F780239123892B61F4219790F7E8
:1012F000F12C8F2DDF91CF911F910F91FF90DF90F7
:10130000CF900895FC2EB6018C2F78D6019771F3FB
:10131000F0CFCF93DF93EC01C9DFBE016FD6DF9131
:10132000CF9108951F93CF93DF93EB019091EF013D
:10133000911531F0CB01EDDFDF91CF911F91089531
:10134000811551F0CB01B2DF182F682FCE018DDF50
:10135000BE01812F53D6F0CFCB0198DF182FF8CFE5
:10136000E1E0F0E0DF0102C0AA0FBB1F6A95E2F7DF
:10137000BD01DF0102C0AA0FBB1F4A95E2F7AD0114
:101380006A2B752B02C0EE0FFF1F2A95E2F79B0117
:10139000282339232617370719F48E2B9F2B0895FE
:1013A000E095F0958E239F230895EF92FF920F937F
:1013B0001F93E0900802809109028E1105C01F91D1
:1013C0000F91FF90EF90089589E0E89EF0011124BD
:1013D000E65FFD4F00811181228133814481558177
:1013E00066817781808569DEC70183958770E82EE5
:1013F000E2CF0F931F93009152021091530220915C
:10140000540230915502409156025091570260911A
:1014100058027091590280915A024FDE1F910F912C
:10142000089580915802803170F48091570281159F
:1014300051F0E0910802209109023091530240914D
:1014400052022E1301C00895BF0189E0E89FF00108
:101450001124DF01A65FBD4F14968C91149781155E
:1014600049F111968C911197831324C08C918413A8
:1014700021C015968C91159781111CC012968D91E3
:101480009D91A0915402B09155028A1B9B0B883C00
:10149000910580F4809158028F708061809358028A
:1014A000E05FFD4F80818F708061808382E592E0F4
:1014B0008CDD7BCF6F5F7F4FFB01E770C2CFE09188
:1014C000080290910902E91302C080E008959F018B
:1014D00059E0E59FF0011124E65FFD4F518156135D
:1014E00006C05081581303C05581541305C02F5FA7
:1014F0003F4FF901E770E7CF81E008958F929F9207
:10150000AF92BF92DF92EF92FF920F931F93CF9310
:10151000DF93CDB7DEB72F970FB6F894DEBF0FBEBF
:10152000CDBF8C0186E0F801DE011A9601900D9284
:101530008A95E1F7F801F580848192E5892E92E0A1
:10154000992E90915602911117C0811509F41DC171
:10155000F11409F45EC1C80197DD811509F459C180
:1015600089E0F801D40101900D928A95E1F7C40158
:10157000A2DA57DF3EDF09C1E080A280B380D090BD
:1015800057022091540230915502A501421B530B82
:101590009A01D11409F4FCC0483C510508F0C1C0BF
:1015A000811509F4F2C09091530291808091580204
:1015B000803108F06EC099122FC0909152029E1196
:1015C0002BC04091590250915A0227813085421711
:1015D000530711F5F11057C08F7080618093580246
:1015E00008DF82E592E0F1DC80915802F801868301
:1015F000F12C8F2D2F960FB6F894DEBF0FBECDBF06
:10160000DF91CF911F910F91FF90EF90DF90BF90EE
:10161000AF909F908F900895F11035C040E0692DF4
:101620008E2D4DDF40E0692D8E2D49DFF82E811182
:10163000DFCF8A859B856DDE292F22952F70903410
:1016400050F49F70223078F0911591F0F801968156
:10165000903170F4CECF2A5F2F70223070F0C80125
:10166000B4DCFD2CC6CF911519F0811509F4C1CF5A
:10167000805E883008F4BDCFF2CF803F08F4B9CF48
:10168000815F8330F7CF8091580281608093580248
:10169000AFCF99121BC0909152029E1117C040917A
:1016A000590250915A02278130854217530771F42D
:1016B000F1100CC08683C80188DC89E0F801A2E53E
:1016C000B2E001900D928A95E1F754CFC801DCDCBD
:1016D000811509F49EC0F11409F49BC08091580251
:1016E0008032B0F0209152023091530229833A8324
:1016F000AB82BC82909156029D831E828F83809123
:10170000590290915A0288879987CE0101965DDC33
:1017100089E0F801A2E5B2E001900D928A95E1F727
:1017200028CF90915802903188F44A855B856C856A
:101730007D858E859F85B7DC82E592E046DCF401ED
:1017400089E011928A95E9F754DE52CF8115E9F0CC
:101750002091530281812813B9CF809152028E11BA
:10176000B5CF4091590250915A02278130854217D6
:10177000530709F0ABCFF110A9CF9683C80125DC40
:10178000F40189E011928A95E9F7FF24F39431CFAF
:10179000483C510508F040C08115B9F3F114C9F176
:1017A00090915302818198132BC0809152028E1127
:1017B00027C04091590250915A028781908548175D
:1017C0005907F1F42837310590F49091580290FDB3
:1017D0000EC0903160F0892F9683907F903F09F47E
:1017E0006ACF982F907F905F8F70892B63CF89E0AD
:1017F000F801A2E5B2E001900D928A95E1F7C5CF1C
:10180000C80142DC811184CF8091580281608093AD
:101810005802C801DADBB9CF4A855B856C857D85C6
:101820008E859F8540DC8BCFA2E1B0E0EAE1FCE051
:101830000C947B2B0A871B872C873D874E875F87FD
:10184000688B798B8A8BCE010A9658DE4E8581157E
:10185000A9F0411549F00A851B852C853D855F85DA
:10186000688979898A8929DC809108029091090226
:1018700089133DC06296E4E00C94972B89E09E01A9
:10188000265F3F4FF90129503109D90101900D928E
:101890008A95E1F7411541F3A09109028A2F90E062
:1018A0008395877090E0AC012091080224171506FB
:1018B00091F099E09A9FD0011124A65FBD4F9E013F
:1018C0002F5F3F4FF90101900D929A95E1F74093F8
:1018D00009026BDDC9CFB2DB109209021092080237
:1018E000E2E5F2E089E011928A95E9F7BDCF19E0CF
:1018F000189FC0011124865F9D4F00DE811509F4F9
:10190000B9CFE09108021E9FF0011124E65FFD4F60
:1019100000811181228133814481558166817781E3
:101920008085CBDB80910802909109020196877037
:101930008093080299CF0E949122209166023091F3
:101940006702821B930B9C0181E0283B3B4008F41B
:1019500080E0089580916502869586958695089524
:1019600080916502877008950E9491222091630200
:1019700030916402821B930B883B9B4038F080912E
:101980006502002482FF0394802D089580E008956D
:1019900090916502977081E0911101C080E00895F7
:1019A00080917302089590917302982B9093730223
:1019B00008958095982F80917302892380937302F4
:1019C0000895809373020895109273020895909180
:1019D0007202982B9093720208958095982F8091AF
:1019E0007202892380937202089510927202089500
:1019F0008091690208950895FECF0895909168023C
:101A0000292F282329F08095892380936802F4CF19
:101A100008950895FECF0895CF93C82F809169024D
:101A20008C238C1769F00E94912280936602909318
:101A30006702809169028C2B809369028C2FEADF08
:101A4000CF91089590916902292F282379F08095EC
:101A500089238093690290E081110E9491228093F2
:101A600066029093670280916902D4CF08958091B5
:101A70006902811541F0109269021092660210927B
:101A8000670280E0C7CF08950F931F93CF93DF9332
:101A900080910E0190910F018C01C0917302809191
:101AA0007202C82B80916902811551F044DF8111C7
:101AB000DEDF80916902C82B0E94D8208111D7DF18
:101AC000F801C083C0910E01D0910F0148E050E0B1
:101AD0006BE572E0CE010E94B82B892B59F088E0AB
:101AE000FE01ABE5B2E001900D928A95E1F7CE01DF
:101AF0000E945E20DF91CF911F910F910895C4CF76
:101B000008950895FECF089590914E0392FF14C05A
:101B1000982F990F990F990F962B9093650210DBD0
:101B20000E949122809363029093640280916502E7
:101B3000869586958695E6CF03CB10926502109226
:101B400063021092640280E0DDCF9091650280957F
:101B5000892380936502282F277059F4891749F04B
:101B600090914E0392FF05C0869586958695F6DA8C
:101B7000E4CF089590914E0392FB222720F9281775
:101B800049F080FB92F990934E038DE493E047D0A7
:101B900082E0DBCF089580914E03002482FF0394FE
:101BA000802DE8CF81E0E6CF80E0E4CF80E090E0D8
:101BB000BC0105C480E090E0BC01FBD3F7CFA4E0FA
:101BC000B0E0E5EEFDE00C947D2B9BD3A6D31C8208
:101BD000CE010496B9D381E090E080930602109282
:101BE0000702BED3198284E18A83CE010196C9D34C
:101BF0001B82CE010396D7D3DDDF2496E2E00C945E
:101C0000992BDDCF08958FC308957CC3089591C3A8
:101C10000895A0C30895A4C30895A7C30895B1C3A8
:101C20000895B6C30895BFC30895CFC30895A6E02D
:101C3000B0E0EDE1FEE00C947B2B0E9491228C0140
:101C400080917402909175028017910779F0198242
:101C50001A820E949122BC0149815A8180E090E061
:101C60000E941C0500937402109375022696E4E00E
:101C70000C94972BE2D260937A0270937B0280934C
:101C80007C0290937D02609376027093770280933A
:101C9000780290937902089508950895FDCF0895EC
:101CA0000895FEDFFBCF0895FECF08950895FEDF6F
:101CB000FBCF81E0089589E391E1FDD6EEDFF1CF1E
:101CC00009C50895089508950895FCDFFCDFFCCF51
:101CD0009CDF811101C095DF8EE792E098DF8DE4F3
:101CE00093E09BDF0E94F51694DFFCD980910402FB
:101CF000909105020ECA0E94882276D2F0D425D493
:101D0000E7DF0E9444200E94FC0434D70E940B1B92
:101D1000F3D4CDCFDFD4811531F00E945D190E943C
:101D2000B9170C9445200895A6E0B0E0EAE9FEE07A
:101D30000C94742BBEDF81110AC079DFEBDF0E94A7
:101D4000991D0E9404052696EBE00C94902B39D443
:101D500085E4A82E83E0B82E750110E0F70100811C
:101D6000812F3ED31F5F183009F445C09FEFE91A59
:101D7000F90A081799F380917E0281FD37D3A0DF1D
:101D8000982E10E0812F2CD3F82EF50181915F0160
:101D9000F81661F18F25D82E00E0EE24E3948D2D06
:101DA0008E21F1F0CC24C3948F2D8E2109F4C12C07
:101DB000911489F0602F812F0E94EC2181110BC0BA
:101DC00009831A830E949122BC0149815A8181E0D2
:101DD0009C2D0E941C054C2D602F812F0E940022FB
:101DE0000F5FEE0C0530D9F6F501F2921F5F183047
:101DF00049F640DFA3CF0813BECF9FCF0F931F93A9
:101E0000CF93DF93FDD0EC01D23508F050C0D03530
:101E100008F0C8C0C03ED10530F5CD3CD10508F072
:101E20009DC0C83AD10578F4C53AD10508F093C0F1
:101E3000C130D105B1F1CE010497813A910588F105
:101E4000C0E0D0E02EC0CE01885A91094B97C0F770
:101E5000C85AD0E0CC0FDD1FC056DE4F0990D881A4
:101E6000C02DD4641EC0D034A8F4D03208F0ADC068
:101E7000C83ED105B0F0CE0191509F3108F78D2FAB
:101E800062D1082F8C2F90E0BBD0D02FDF71C82FEC
:101E9000D92B07C08C2F90E0B3D0DF70C82FD92B7F
:101EA000D06ACE01DF91CF911F910F910895C03874
:101EB00082E5D807B8F5C03682E5D80708F056C0E5
:101EC000C03482E5D807C8F4C03282E5D80708F0EC
:101ED00047C08C2F8695869520E2829FC0011124F1
:101EE000C37021E030E002C0220F331FCA95E2F731
:101EF000E901C82BD92BDD68D4CF8C2F8695869528
:101F0000877020E2829FC0011124C37021E030E07D
:101F100002C0220F331FCA95E2F7E901C82BD92B63
:101F2000DC68BFCFC03C82E5D80750F48C2F8F719E
:101F3000C03AD24580F5982F84EF906AEC01B1CF7A
:101F4000CE01805C9245809708F07ACFDC2FDF715C
:101F5000C0EFD06AA6CFA497D064A3CFD065A1CF9D
:101F60008C2F8F71D82FC1EFD06A9BCF8C2F869585
:101F70008695877020E2829FC0011124C37021E002
:101F800030E002C0220F331FCA95E2F7E901C82BE7
:101F9000D92BDA6886CFD7D0982F80E09F71EC01DB
:101FA000D0627FCF8C2F8F71CED053E0CC0FDD1F4E
:101FB0005A95E1F7DF70282F84FF04C090E1899FD4
:101FC00090011124C22FD0696CCF8D2F8F71BBD09F
:101FD000082F8C2F90E014D0302F3F71282F392BF1
:101FE0003062E9015ECF462F783028F4653018F46E
:101FF000672F0C94500380E090E00895F4DFFECE4C
:10200000803E9105D1F1C8F48133910509F481C076
:1020100048F48932910509F471C08A32910509F4B6
:102020007FC0089589339105E1F082389105C9F0A8
:102030008533910509F45DC00895843E9105D1F181
:1020400048F4823E910531F1833E910541F181EEE4
:1020500090E00895863E9105C1F1873E9105F1F12A
:10206000089520914D03237009F064C020914E0320
:1020700023FF14C089E290E0089520914D0320FDD4
:1020800045C030914E0330FF09C024FD24C083EECB
:1020900090E0089520914D0322FDF7CF08952091FF
:1020A0004D0322FD44C030914E0330FD43C024FF58
:1020B000F5CF11C020914E0321FFF0CF80914D0349
:1020C00084FD09C087EE90E0089520914D0323FF21
:1020D000E5CF24FFF7CF80E090E0089520914D03F5
:1020E00023FD2BC030914E0331FFE1CF84EE90E011
:1020F000089520914D0325FFD1CFBCCF20914D03F2
:1021000025FD1EC020914E0323FFC8CF89E390E038
:10211000089520914D0326FFC1CF8AE290E00895F3
:1021200020914D0326FFBACF81E390E0089582EE1F
:1021300090E0089580EE90E0089586EE90E0089596
:1021400085E390E0089590914D0392FF10C041E027
:10215000282F2471243009F040E031E0282F287125
:10216000283009F030E0431711F02CE0822793FF6C
:1021700010C041E0282F2471243109F040E031E003
:10218000282F2871283109F030E0431711F02CE096
:10219000822730914E0330FF10C051E0282F21716B
:1021A000213009F050E041E0282F2871283009F053
:1021B00040E0541711F029E0822731FF10C041E0C0
:1021C000282F2171213109F040E031E0282F2871BA
:1021D000283109F030E0431711F029E0822794FFFD
:1021E00002C083FD877E089510924F031092500322
:1021F00010925103109252030895EF92FF920F93A1
:102200001F937B018C0166D2811112C00E949D2216
:102210009701A801261B370B480B590BC901DA019E
:1022200080934F0390935003A0935103B0935203B4
:102230001F910F91FF90EF9008954CD2811541F0BE
:102240000E949D22462F572FBC01CB01BA01089551
:102250000E949D22DC01CB0140914F03509150031D
:102260006091510370915203480F591F6A1F7B1FE1
:10227000ECCF80E00895CF939C01205E3245C1E011
:102280002032310538F4FB01C581C11103C08F71C3
:102290000E9495048C2FCF9108959C01FB018581AC
:1022A000811599F02B359CE7390769F02C359CE7AF
:1022B000390721F02A353C4721F008956CDC80E095
:1022C000089570DCFCCF70DCFACF81E008959C01AA
:1022D000FB018581811599F021309CE7390761F078
:1022E00023309CE7390739F021153C4749F40E9417
:1022F000BD0480E0089587DC0E94C104FACF81E02C
:102300000895089580E090E00E94D62B9C0181E022
:10231000233E3E4F09F080E0089563EE7EEF80E0BB
:1023200090E00C94F52B6FEF7FEF80E090E00C9441
:10233000F52BCF93DF93EC0182E090E00E94CE2B4F
:102340008883DF91CF910895FC01608182E090E065
:102350000C94DB2B83E090E00E94CE2B90E008955C
:10236000682F83E090E00C94DB2BCF93DF93EC019C
:1023700084E090E00E94D62B88839983DF91CF91EF
:102380000895FC016081718184E090E00C94F52B4C
:10239000CF93DF93EC018CE090E00E94CE2B8883FA
:1023A000DF91CF910895FC0160818CE090E00C9466
:1023B000DB2BAB01BC018FE090E00C94ED2BAB016B
:1023C000BC0183E190E00C94ED2B682F8EE090E04F
:1023D0000C94DB2B0895FECF08950895FECF089549
:1023E000E82FF0E0E45AFC4F8081089508950895A5
:1023F000FECF0895A4E0B0E0E0E0F2E10C947A2B87
:1024000069D1F82E8091640390E0845A9C4FF114B6
:10241000D9F18E010F5F1F4FF80124E011922A9528
:10242000E9F7B80175D18115B1F08091530390E0BF
:1024300044E050E0B801845A9C4F0E94B82B21E040
:1024400020937F02892B91F4F12CC8DF8F2D2496E5
:10245000E5E00C94962B80917F028115A9F3F80199
:1024600084E011928A95E9F710927F02E09153037C
:10247000F0E0E45AFC4F89819A81AB81BC81808372
:102480009183A283B383E1CF2091530330E0BC0159
:10249000C901845A9C4FC7D1ABDFD8CF0F931F938C
:1024A000CF9320E131E061E0D90140E050E08D912F
:1024B0008F3F99F0E82FE295EF70F0E0C1A18F70A7
:1024C000062F01C0000F8A95EAF7902F90959C2364
:1024D00091A392A1802F892B82A34F5F5F4F45303C
:1024E000510529F72B5F3F4F81E024323807E1F691
:1024F000CF911F910F910895CF93AC0185E0689F14
:10250000D0011124A05FBE4F70E0C1E080E09D913A
:102510009F3F79F0E92FE295EF70E05EF0E02081D7
:1025200030E09F7002C0359527959A95E2F79C2F71
:1025300020FD90E0892B7F5FCC0F753041F7460F6F
:10254000511DFA018083CF910895A4E1B0E0EBEA38
:10255000F2E10C947D2B80912401811113C084E160
:10256000E6E5F1E09E012F5F3F4FD90101900D920A
:102570008A95E1F784E1F901A0E1B1E001900D92C3
:102580008A95E1F78091240191E08927880F880FCF
:102590008093640394E0981B909353037FDFECE5F2
:1025A000F3E088E011928A95E9F7E4E5F3E088E04A
:1025B00011928A95E9F745D00EDF6496E2E00C941B
:1025C000992BA8E0B0E0E7EEF2E10C947A2BFE0143
:1025D0003196DF0188E01D928A95E9F710E00E2F11
:1025E000FF2E612F802F9F2D87DF812F8F5F182F68
:1025F0008430B9F748E050E0602F7F2D84E593E008
:102600000E94B82B41E0892B91F440E06091640373
:1026100070E0645A7C4F84E593E014D0182FEADE12
:10262000912F982B892F2896E5E00C94962B88E023
:10263000E02FFF2DA4E5B3E001900D928A95E1F71C
:10264000E5CF0895EF92FF920F931F93CF93DF93FF
:102650008C017B01C42F411579F081E080938202C7
:102660000E949122809380029093810280E0CDB7F6
:10267000DEB7E6E00C94952BD0918202D115B1F330
:1026800080918002909181020E941022059770F340
:1026900044E050E0B801C7010E94B82B892B41F0FB
:1026A00084E0F801D70101900D928A95E1F7CD2FD2
:1026B000109282028C2FDBCFCF930E94472BC82F22
:1026C000811102C00E94432B8C2FCF9108958091DD
:1026D00086020895809185020895FCCF0895ECDF6D
:1026E00080938502FADF80938602F1DF80932401D4
:1026F000F1DF811140C00895EDDF811101C03EC0BE
:10270000089581E0909187029A3008F080E0089562
:102710000F931F93CF93DF93EC018B01809187027E
:102720008A3080F4B801CE017CD0811121C0809123
:1027300087028F3FB1F40E9491228093830290938D
:10274000840209C080918302909184020E94102229
:10275000843F914038F780E0DF91CF911F910F9136
:1027600008958F5F809387028A3028F781E0F4CF45
:1027700010928702FBCF0C943F2308950C944223C0
:102780000895CF92DF92FF920F931F93CF93DF9321
:102790006901E801082F880F110B41155105B1F0AF
:1027A000F80133E0EE0FFF1F3A95E1F7EB5DFE4FC6
:1027B0008181928188579D4FE0812E2F30E04E1706
:1027C000510508F49A01A9010E94C52BC8010E9475
:1027D0002124F82E8115E1F02097D1F0C80123E0E3
:1027E000880F991F2A95E1F7FC01EB5DFE4F2381CD
:1027F000422F50E0C217D10508F4AE018B5D9E4F09
:10280000FC016481758168577D4FC6010E94C52B0C
:102810008F2DDF91CF911F910F91FF90DF90CF907F
:102820000895EDC0089500C10895A4E0B0E0EBE183
:10283000F4E10C947B2B60919D0270919E0280913B
:102840009F029091A0020E94192211E06436710546
:102850008105910508F1F1DCDC01CB010296A11D97
:10286000B11D89839A83AB83BC8300E010E098019B
:1028700044E050E0BE016F5F7F4F82E082DF182F9F
:10288000811551F00E949D2260939D0270939E02DB
:1028900080939F029093A002812F2496E4E00C94F1
:1028A000972BA5E0B0E0E7E5F4E10C94752B5B0114
:1028B000E090D601F090D70101E010E0CE0105963E
:1028C0009C0140E050E0BA0180E05BDF182F8115E9
:1028D00009F446C067018FEFC81AD80A60919902BF
:1028E00070919A0280919B0290919C020E94192201
:1028F000643671058105910560F104E010E09E01E8
:102900002F5F3F4F40E050E0BA0181E03ADF182FDF
:1029100064E070E0C60180D69D8198132CC011152B
:1029200051F10E949D226093990270939A028093C4
:102930009B0290939C0289819A81AB81BC81809398
:10294000950290939602A0939702B093980281E02B
:1029500013C064E070E0C6015FD69D818913CDCFBE
:10296000F70181819281A381B48189839A83AB83AA
:10297000BC831111E0CF80E0409195025091960206
:102980006091970270919802F501408351836283B0
:1029900073832596EAE00C94912BA0E0B0E0E3ED80
:1029A000F4E10C94752B7C016B015A01AADE0AE05C
:1029B00010E0811102C001E010E0C1E0D0E0B601FA
:1029C000C701F5010995811115C021960C171D0746
:1029D0008CF0CC9F9001CD9F300D300D112480E004
:1029E00090E045E34A95F1F70000019682179307BE
:1029F000C1F7E5CFCDB7DEB7EAE00C94912B0F938A
:102A00001F93CF93DF93EC018B0141E554E1C5DFC8
:102A1000811529F045E154E1B801CE01BEDFDF9117
:102A2000CF911F910F910895CF93DF93C091D6015D
:102A3000D091D701CE01019624E0FB01DC01019089
:102A40000D922A95E1F764E070E0E6D588838D81E8
:102A50009E81AF81B8854091910250919202609120
:102A600093027091940284179507A607B70759F04F
:102A70008093910290939202A0939302B093940258
:102A8000BC01CD01BADBDF91CF9108954DC9089506
:102A90000E942B220E94ED250ED90E9405262BD9DB
:102AA0000E940E260E941126F1DF0E9427260E9416
:102AB000D8240BD9F7CF8093E8019093E9010895CA
:102AC0000C94CB2008950895FB012581211539F040
:102AD00097FF05C09F77BC0180E090E01AD181E0AC
:102AE00008950F931F93CF93DF93EC018B01FB01AC
:102AF0008581811581F00E94D00C8272FE01E05325
:102B0000FC47E830F10538F4E95EF34D0C94672B8F
:102B1000811559F041D0B801CE01D6DFDF91CF91B8
:102B20001F910F9108958115A9F335D0F4CF80E05E
:102B300027D0F1CF81E0FCCF82E0FACF83E0F8CF5D
:102B400084E0F6CF85E0F4CF90916603923069F48B
:102B50008A3048F4875F90E06AE070E00E94542B6E
:102B6000875A0C94F4058650FCCF0C947C1F089572
:102B7000FECF089586E693E054D880916603F8CF9F
:102B8000CF93C82F8093660386E693E04CD88C2FB2
:102B9000EFDFCF910895089508950E945C208093FF
:102BA000650390916603913029F481FF03C089E3A6
:102BB0000E94F4050E94D00C809367030E94E40CED
:102BC0000E94F50C809166038230B9F030F48111D7
:102BD0000FC082EE0E946C0504C0843011F1853074
:102BE00029F18FE39CE90197F1F700C000000895F7
:102BF00088E193E00E94CA03F4CF8091650380FDD1
:102C000003C083E50E94F40582EE0E946C058FE309
:102C10009CE90197F1F700C0000087E50E94F405E8
:102C2000E0CF86EE0E94F40588E1F8CF8BE191E0D9
:102C30000E94CA0385E290E00E94CA0388E290E005
:102C4000D9CF809166038230D1F030F481110CC06D
:102C500082EE0E94B00504C08430D1F08530D1F0FE
:102C6000809167030C94E10C8CE20E94F405809142
:102C7000650381FFF5CF89E30E94F405F1CF82EE71
:102C80000E94B0058091650380FDEACF83E5F4CF13
:102C900088E2F2CF88E290E00E94CA03E1CFA0E090
:102CA000B0E0E5E5F6E10C94752B5B016C01D09189
:102CB00066038CE1E82EF12C07E010E021E0C5016D
:102CC000D6010E2C04C0B695A795979587950A94C2
:102CD000D2F7C82FCF70211531F0D43041F4CA306B
:102CE00030F080E031DF8C2F2FDF20E005C0C111F4
:102CF000FACF04301105BCF30150110984E0E81A41
:102D0000F1080F3F1007D9F6CDB7DEB7EAE00C9413
:102D1000912BCF92DF92EF92FF926B017C0181E1C8
:102D2000E816F10438F40E2C0F2849F08091660360
:102D3000823049F4FF90EF90DF90CF9008952DDF1F
:102D4000B601C70121C029DF809166038111F8CF48
:102D500081E0E81AF1088D2D9E2DAF2DB0E0A695EB
:102D600097958795A695979587959852AF4FBF4FA2
:102D7000BC01CD0194DF83E0D822E12CF12CB60117
:102D8000C70174528F4F9F4F8ADF5BDFD3CF0C9404
:102D9000030E0895CF939BDC91E08927C82FCC0FB9
:102DA000CC0F8C2F1DDB21E030E002C0220F331F3F
:102DB000CA95E2F790E02823392381E0232B09F418
:102DC00080E0CF910895FDDB8FEF96E721E0815001
:102DD00090402040E1F700C00000F3DBDBDF81150D
:102DE00019F0D5DF0C94CD220895EDCF08959C0104
:102DF0008D329105F9F088F48832910548F44E97A8
:102E0000E0F4245031092A313105A0F080E0089522
:102E100081E02A323105D1F7089581E02D3292E028
:102E2000390709F080E091E02C34310509F090E099
:102E3000892B089582E00E94E70C81E00895EF92CB
:102E4000FF920F931F93CF93DF93EC018B01C33756
:102E50008CE7D80751F4FB01858181119BD080E07C
:102E6000CDB7DEB7E6E00C94952B0E94D00CF82E7F
:102E70000E94F80CE82E5FD08115A1F153D0F80123
:102E80008581811579F18F2D8E298D79E9F5D035E0
:102E900078F4D03408F03FC0C63ED10519F1CE0118
:102EA0009052903280F48681803118F1D0E00BC0CE
:102EB000C43B82E5D807B1F0B8F4C03482E5D80746
:102EC00058F4D23578F40E94F50CCE0190DF8115CC
:102ED000D9F00E947F0D06C0CE0180569245803405
:102EE000910588F781E0BCCFCE01805C9245809748
:102EF000F8CF8D2F8F718431A9F340F4823079F0AF
:102F0000C5EED0E08231F9F228D0ECCFC6EED2E1A6
:102F10008631C9F2F9CF8681803140F6E3CFC1EE28
:102F2000D0E0D1CF0E94912288579C4E8093A1027D
:102F30009093A20208958091A3020895089580912C
:102F4000A302811109C00E94E40C0E94370DEADF40
:102F500081E08093A302F2CF08958091A3028115AE
:102F600039F082E20E9408081092A30280E0E6CFC6
:102F700008958091A302811561F00E949122209111
:102F8000A1023091A202821B930B8F3F9F4708F44E
:102F9000E4CF08958091A302811509F0DECFCFCF51
:102FA000A9E0B0E0E6EDF7E10C94792B7B01FB01A1
:102FB00022813381232BC9F0FE01319687E01192E3
:102FC0008A95E9F70E9491229C01F7017281838121
:102FD00009811A8144E05E816F810E94140CF7011F
:102FE00015822996E6E00C94952B60E00E94EE0293
:102FF000F6CFEF92FF920F931F93CF93DF938091C1
:103000001703E091A402CDE081112AC0CDB7DEB74D
:10301000E6E00C94952BDE2FDF5FD093A402EE2E1A
:10302000F12CCE9FF0011124E155FD4F84818115D3
:10303000B1F087819085892BE1F4818592858F3F5E
:103040009807B9F061E00E94EE02CE9DF001CF9D9D
:10305000F00D1124E155FD4F14820E94F50CED2F67
:1030600080911703E817B8F2109217031092A40288
:10307000CDCF0081118122813381448155816681C8
:10308000778180850E94140CE0CFCF93DF9310925C
:10309000180310921903C0E0D0E00E945203C81731
:1030A000D90718F0DF91CF910895CE010E94550302
:1030B000FC018581811102C0148216822196EDCF18
:1030C0001F93CF93DF931091AD024091AE02411751
:1030D000C9F0C12FD0E0FE01EE0FFF1FEB55FD4FF1
:1030E000208131812817390789F40E94550321E096
:1030F000FC0124838091AD02811304C02196C3702A
:10310000C093AD02DF91CF911F910895C3951C2FFD
:103110001370DDCFA0E0B0E0E0E9F8E10C94722B91
:10312000EC01FB01848181115CC090901703AFEA30
:10313000B2E040E050E030E001E010E0491508F076
:103140004EC01B96AD90BD901D97FB01C080D180F5
:1031500077247A94872C20E0822F90E0F601E20F0A
:10316000F11DE20FF11DE590F590AE14BF0411F0D2
:10317000872D982DE114F10421F02F5F782E892EF0
:10318000EBCF8F3F9807A9F1F80101C0EE0F8A95A8
:10319000EAF73E2BC801022E02C0880F991F0A943D
:1031A000E2F701973817190609F5FB01828193812F
:1031B0003DE0349FF001359FF00D1124E155FD4FA6
:1031C0008783908784E0848310821182C187D287AD
:1031D00081E0FB018583213011F4CE01E1DECE01D7
:1031E0006FDFCDB7DEB7EDE00C948E2B14961C92FA
:1031F00014974F5F5F4F1D96A1CF0F931F93CF93EF
:10320000DF93C091AD028091AE028C1307C0F1DE56
:103210003CDFDF91CF911F910F910895D0E08E0197
:10322000000F111F0B551D4FF801808191810E94E5
:103230005503BC01F801808191816CDFC395C37097
:10324000E2CFEF92FF920F931F93CF93DF93DC01B6
:103250004D915D91129730E090E020E0FA01E20F8D
:10326000F11DE20FF11DC591D5912097C1F0FB0131
:103270000081118190E007C081E0CE15DF0509F0E3
:1032800080E0382B9F5FF801E90FF11DE90FF11D78
:10329000E590F590E114F10479F72F5FDFCF311558
:1032A00049F0921708F0BD01CB01CDB7DEB7E6E0DB
:1032B0000C94952B60E070E0F7CF80913D01811573
:1032C00029F180911A0390911B030097F9F00E9455
:1032D0001022209118033091190328173907B0F4F0
:1032E0009091AD028091AE02981751F086DF109256
:1032F00018031092190310921A0310921B030895D9
:1033000078DE10921A0310921B03BFCE089510921C
:103310001A0310921B0310923D018091AE0280931C
:10332000AD02B3DE66CE80913D01811509F0EFCF8D
:1033300081E080933D010895ABE0B0E0E2EAF9E17D
:103340000C946D2B7B0180352CE7920761F4FB0117
:1033500085818115D9F081E080933D0181E02B9634
:10336000E2E10C94892B81352CE7920731F4FB01C3
:103370008581811559F0CBDFF1CF82359C4731F43F
:10338000FB018581811511F0CEDFE8CFF701608167
:10339000718180E00E94F30F1C01C12CD12C812C83
:1033A000360163940E945203C816D906D8F1F7017A
:1033B0008581811509F420C1811409F41DC10E9481
:1033C000912280931A0390931B03809117038830F6
:1033D00028F5982F9F5F9093170399E0F7019E01BE
:1033E0002F5F3F4FD90101900D929A95E1F72DE0A3
:1033F000829FC001112481559D4F29E0AE014F5F8E
:103400005F4FFA01DC0101900D922A95E1F72FEF51
:103410003FEFFC012187328723863486882D8095F3
:1034200081709DCFC6010E9455038C01FC01208153
:1034300031816FEF80E09FEFA82EB12CF901E80FEA
:10344000F11DE80FF11D459155912416350611F037
:10345000A62EB92E452B21F08F5F6A2D9B2DECCF28
:103460009FEFA916BA0409F4C5C0F8014481509031
:103470003D014111512CF80195809681F70125817C
:10348000211509F47EC0511409F47BC0911015C0B8
:1034900021E00A2C01C0220F0A94EAF7922BF801CE
:1034A000968320911803309119032233310528F4B3
:1034B00022E32093180310921903930102C0220FF4
:1034C000331F8A95E2F7C9010197F8012681281771
:1034D000190659F580911A0390911B03009759F032
:1034E0009FD7C39740F081E0F8018483882A8FEF4B
:1034F000C81AD80A57CF4090AD0280E090E09924D6
:1035000093942091AE02421212C00817190769F075
:10351000842D90E0FC01EE0FFF1FEB55FD4FC082A4
:10352000D182019683708093AE02852DDFCFA42CCB
:10353000B12CF501EE0FFF1FEB55FD4F80819181FE
:103540000E9455038A879B87B8017BDE0097A1F014
:10355000FC0194820817190741F32091AD02421231
:103560000BC02A853B852817390731F495012F5F59
:103570003F4F23702093AD02950123952370422E77
:10358000C0CF292F30E091101EC0B30102C0660FDA
:10359000771F8A95E2F7CB0101978217930771F0A5
:1035A000512CC30102C0880F991FAA94E2F75C0155
:1035B000A094F80186818A218683B7CF411589F3CB
:1035C000C6017EDDEDCFA9010A2C02C055954795B5
:1035D0000A94E2F7C901019782239323892B39F4D6
:1035E00040FF05C0B801C601DBDC592CDACF4170C1
:1035F000542ED7CF80E07ACF9091AD028091AE0269
:10360000981711F0FADD0ACFF4DC10921A03109229
:103610001B033BDD03CF0895FC01680F791F8FEF7B
:1036200041E3E617F70709F408959191892728E007
:1036300030E0982F990F87FF06C0892F84272150EB
:103640003040B9F7EECF892FFACFCF93DF93EB015C
:1036500086319C4709F50E94D00C9D81911599F007
:103660008A7A91E0811101C090E090931C0381154A
:1036700041F085E3EDD50E947F0D80E0DF91CF9191
:10368000089589E2F7CF80911C03811519F085E335
:10369000E5D5F1CF89E2FCCF81E0F0CFCF93DF9386
:1036A000EC01FB018581811509F4CBC09E013057E7
:1036B0002332310508F0ABC08DE493E00E940D0E7B
:1036C000FE01E150F047E232F10520F4E15EF34DF6
:1036D0000C94672B80914D03816080934D0390C0C3
:1036E00080914E03886080934E038AC080914D0381
:1036F0008260F3CF80914D038460EFCF80914D03C2
:103700008860EBCF80914E038160EDCF80914E03B6
:103710008260E9CF80914D038061DFCF80914D03BE
:103720008062DBCF80914D038064D7CF0E941E085A
:1037300080914D038068D1CF80914D038C60CDCFB7
:1037400080914E038360CFCF80914D038E7FC5CF94
:1037500080914E03877FC7CF80914D038D7FBDCF72
:1037600080914D038B7FB9CF80914D03877FB5CF7B
:1037700080914E038E7FB7CF80914E038D7FB3CF64
:1037800080914D038F7EA9CF80914D038F7DA5CF72
:1037900080914D038F7BA1CF0E941E0880914D0325
:1037A0008F779BCF80914D03837F97CF80914E037E
:1037B0008C7F99CF90914D03892F8B7F92FF8460EE
:1037C000877F92FF886089CF80914E03982F9095D4
:1037D00090FB80F990FB81F986CF90914D03892F62
:1037E0008F7B96FF806479CF0E941E0890914D03D5
:1037F000892F97FB87F9805870CF81E00E94150EC2
:103800008DE493E00E940F0E0E941E0880E0DF917D
:10381000CF91089580E0F2CF90914D03892F8F7E54
:1038200094FF80615ACF90914D03892F8E7F90FF36
:10383000816053CF90914E03892F877F93FF8860DB
:1038400052CF81E0E4CF382F25EB3203C0011124A1
:1038500097FF04C080589109892F089580589F4F81
:10386000FBCF8091230380FF0DC06091430170E086
:10387000660F771F6038710588F56115710581F154
:10388000862F089581FF07C06091430184E0689FFF
:10389000B0011124EFCF82FF04C06091430188E0A2
:1038A000F6CF909122039115B9F060914201809179
:1038B0004301961728F098E0899FB0011124DACFD0
:1038C000899FC001112423E0880F991F2A95E1F7F1
:1038D00070E00E94542BCECF68E0D2CF8FE70895DE
:1038E00081E008958091230380FF0CC060913F0127
:1038F00070E075956795759567956115710541F14E
:10390000862F089581FF06C060913F0170E0759594
:103910006795F3CF60913F0182FD0BC09091210329
:103920009115A1F060913E0180913F01961738F00A
:10393000682F70E06038710500F38FE70895899F64
:10394000C001112470E00E94542BF4CF61E0D8CF65
:1039500081E00895E82FED5CE33198F5F0E0EF5B4E
:10396000F34D0C94672B7DDF819580932703089599
:1039700078DFFBCF76DF819580932603089571DF92
:10398000FBCFB0DF809328030895ACDF8195FACF99
:10399000A9DF8195809329030895A4DFFBCF815D82
:1039A000990B21E001C0220F8A95EAF78091250347
:1039B000822B809325030895809123038160809357
:1039C00023030895809123038260F9CF809123031C
:1039D0008460F5CF409126038D3C59F480912703F4
:1039E00087FF0DC010922703411559F4109222034E
:1039F00008C08E3C81F48091270318169CF3411572
:103A000081F08091280390912903892B09F056C0F9
:103A10001092210308958F3C41F447FFF0CF10929C
:103A20002603809127038115E0CF803D19F41416F9
:103A3000B4F3E5CF90912803893D29F41916FCF6DB
:103A400010922803DCCF8A3D19F497FFD8CFF8CF26
:103A5000909129038B3D29F497FFD1CF1092290330
:103A6000CECF8C3D19F41916CCF3C9CF982F915DA8
:103A7000983078F4815D990B21E001C0220F8A957E
:103A8000EAF7822F8095909125038923809325035F
:103A9000B6CF8D3D31F4809123038E7F8093230335
:103AA000AECF8E3D21F4809123038D7FF7CF8F3DE4
:103AB00009F0A5CF809123038B7FF0CF089531D5F6
:103AC0009C019091260380912703982B21F020934D
:103AD0001F03309320039091280380912903982B92
:103AE00021F020931D0330931E0384E293E0F3C280
:103AF000E4E2F3E086E011928A95E9F7109222035E
:103B000010922103109223030895FC0182818111F8
:103B10000EC0838181110BC08481811108C091E0A6
:103B20008581811101C090E0892F8170089581E025
:103B3000FCCFA6E0B0E0EFE9FDE10C947A2B86E043
:103B4000E4E2F3E09E012F5F3F4FD90101900D9217
:103B50008A95E1F71092260310922703109228030A
:103B6000109229038B819C81892B022FF32E8115C2
:103B700081F080911F039091200352D4AC01909169
:103B800022039115A1F1809144018417150608F4D0
:103B90003BC08D819E81892B89F080911D0390917E
:103BA0001E033ED4AC0190912103911509F45AC033
:103BB000809140018417150608F462C0602F7F2DA4
:103BC00084E293E05BD3811104C084E293E09DDF43
:103BD000811175DF86E0E02FFF2DA4E2B3E00190B4
:103BE0000D928A95E1F72696E5E00C94962B2091AC
:103BF00045018AE0289F900111242417350748F6D3
:103C00009F5F9093220302C09F3FD1F71B81111544
:103C100051F027DE91E011160CF09FEF899F802D67
:103C20001124809326031C81111551F01ADE91E0B6
:103C300011160CF09FEF899F802D1124809327038C
:103C400080912603811509F4A4CF10912703111543
:103C500009F49FCFF8DD80932603812FF4DD809354
:103C6000270397CF209141018AE0289F90011124DA
:103C70002417350708F0A2CF9F5F9093210302C05D
:103C80009F3FD1F71D81111551F02CDE91E01116E7
:103C90000CF09FEF899F802D1124809328038E8143
:103CA000182F811551F01EDE91E011160CF09FEFD8
:103CB000899F802D112480932903809128038115E9
:103CC00009F47CCF90912903192F911509F476CF2F
:103CD000BADD80932803812FB6DD809329036ECF50
:103CE000DC01ED91FD9184913196FE93EE93089560
:103CF000A0E0B0E0EEE7FEE10C94762BE82FF0E0D8
:103D0000E95BFC4F9491B92E282F26952695269590
:103D100030E0F901E951FC4FE4908770F12C082E56
:103D200002C0F594E7940A94E2F7F901E952FC4FD6
:103D3000C490D12C082E02C0D594C7940A94E2F7FF
:103D400029533C4FF901049110E002C015950795E5
:103D50008A95E2F7C62FD0E0E0FC25C0C0FE06C081
:103D600086EE0E946C05CE01009759F5BE018B2DA1
:103D70000E94DE05CE01009761F5C0FC32C0E0FE76
:103D800006C081EE0E94B005CE010097C1F500FF8C
:103D900005C08CE20E94F4052097C9F5CDB7DEB7C7
:103DA000E9E00C94922B81EE0E946C05CE01009705
:103DB000A9F2EFE9FFE03197F1F700C000000197A9
:103DC000F6CFEFE9FFE03197F1F700C0000001976F
:103DD000CBCFEFE9FFE03197F1F700C0000001978A
:103DE000CACF86EE0E94B005CE01009741F2EFE9FE
:103DF000FFE03197F1F700C000000197F6CFEFE93F
:103E0000FFE03197F1F700C000000197BECF8FE9C6
:103E10009FE00197F1F700C000002197BDCFA0E01F
:103E2000B0E0E5E1FFE10C94762B8C017B01B42E30
:103E3000C701F80109958130A0F009F058C0C70109
:103E4000F8010995C82F813089F4C701F801099557
:103E50000E94F4058B2D90E0009709F040C0C1113D
:103E6000E7CFCDB7DEB7E9E00C94922B823031F486
:103E7000C701F80109950E946C05ECCF833031F43D
:103E8000C701F80109950E94B005E4CF843011F70D
:103E9000C701F8010995C82FC12CD12CDAE08C2F6D
:103EA0008053990B8A30910568F0C114D10491F2C6
:103EB000EFE9FFE03197F1F700C0000081E0C81A98
:103EC000D108F3CFDC9D9001DD9D300D1124820FD0
:103ED000931F6C01C701F8010995C82FE0CFEFE9E6
:103EE000FFE03197F1F700C000000197B5CF6B2DCF
:103EF000FFDE9ECF60E0FCCE982F9F709A509630E8
:103F000010F0805DF7CF895AFDCFA2E0B0E0EBE87A
:103F1000FFE10C947D2B462F89839A83BE016F5F4E
:103F20007F4F80E79EE17BDF2296E2E00C94992BA5
:103F30000F931F93CF93DF93C42FD22FFC01858162
:103F40008115C9F040932C03ECD280932A039093FF
:103F50002B038C2F805E883048F481E0C1FD84E023
:103F6000C0FD880FC2FD82950E94FB05DF91CF91B5
:103F70001F910F91089510912C03141333C0809159
:103F80002A0390912B034CD2883C910558F5CD2FF4
:103F9000C05E1D17C1F0812F805E883048F481E03B
:103FA00011FD84E010FD880F12FD82950E9400062D
:103FB000C83048F481E0D1FD84E0D0FD880FD2FD07
:103FC00082950E94FB05802F0E94F40581E0D1FDBF
:103FD00084E0D0FD880FD2FD8295C83038F60E946B
:103FE0000006C4CF8C2F805E883008F0BFCF81E000
:103FF000C1FD84E0C0FD880FC2FD8295F0CF0F9314
:10400000FC01CB01E851FC47E730F10588F5EC5A9B
:10401000F34D0C94672B06E221EE41EE6AE17CE75A
:1040200087DF80E00F91089507E225EE45EE6BE112
:104030007CE7F6CF06E221EE40EE68E17CE7F0CFC8
:1040400007E225EE44EE69E17CE7EACF06E221EEE5
:1040500042EE6CE17CE7E4CF07E225EE46EE6DE14F
:104060007CE7DECF08E221E045EE6EE17CE7D8CFC9
:10407000FB018581811110922C0381E0D3CF8093C5
:104080003203909333030895089508950E946A13AC
:10409000811103C080912D030895E0913203F091C6
:1040A0003303309739F00190F081E02D309711F013
:1040B0000995089580E00895E9CF0895E0913203CD
:1040C000F0913303309731F00280F381E02D309787
:1040D00009F009950895E0913203F0913303309788
:1040E00059F026813781232B39F022E0DC012C9313
:1040F0000680F781E02D09950895A3E0B0E0E3E89C
:10410000F0E20C947D2B209130033091310328177D
:104110003907B1F08093300390933103E09132037B
:10412000F0913303309761F00084F185E02D3097F2
:1041300039F023E029838A839B83CE010196099578
:104140002396E2E00C94992BA3E0B0E0EAEAF0E2D7
:104150000C947D2B20912E0330912F0328173907C3
:10416000B1F080932E0390932F03E0913203F091EE
:104170003303309761F00084F185E02D309739F0FA
:1041800024E029838A839B83CE0101960995239697
:10419000E2E00C94992BE0913203F09133033097D5
:1041A00031F00284F385E02D309709F009950895E8
:1041B00040910E0150910F019A012E5F3F4F485FD1
:1041C0005F4F80E0F90190812F5F3F4F91118F5F2A
:1041D00042175307B9F70895811591F020910E0108
:1041E00030910F01F9013296285F3F4F9081981767
:1041F00031F03196E217F307C9F780E0089581E0C6
:1042000008959C01FC01329680E09FEF40814617A3
:1042100059F031969F3F19F4411101C0982F8F5FDB
:104220008630A1F79F3F09F40895290F311D97FDAE
:104230003A95F90162830895FC013296089621911E
:10424000261302C0DF011E92E817F907C1F708958F
:10425000682F80910E0190910F01D3CF682F80912C
:104260000E0190910F01E8CFE0910E01F0910F0146
:10427000329686E011928A95E9F70895DC01FB01F8
:1042800011969C9111978181981322C012968C915E
:104290001297811519F0928189131AC013968C9187
:1042A0001397811519F09381891312C015968C917B
:1042B0001597811519F0958189130AC014969C9160
:1042C000911521F081E02481291303C080E001C011
:1042D00081E0817008950895FECF08958F5F8093E7
:1042E0004901609146017091470180914801909188
:1042F0004901F2CF83E080934901609146017091BA
:1043000047018091480190914901E6CFE7CF089598
:1043100081E080934901609146017091470180914D
:10432000480190914901D8CFF3CF089591E08111D0
:1043300001C090E09093480160914601709147015F
:104340008091480190914901C7CF8091480108951B
:104350008093470160914601709147018091480127
:1043600090914901B9CF809147010895809346010A
:1043700060914601709147018091480190914901F7
:10438000ABCF80914601089508950895FECF08951A
:1043900008950895F9CF08950F931F93CF93DF9356
:1043A000F7DF0E94E112F5DF04E313E0C0E0D0E0A4
:1043B0008C2F0E94F011F80181938F0191E08111FF
:1043C00001C090E0D92BCF5FC83091F78D2FDF91DE
:1043D000CF911F910F910895E82FF0E0EC5CFC4F16
:1043E000808190E021E030E002C0220F331F6A9507
:1043F000E2F72823392381E0232B09F480E0089594
:1044000041110DC0E82FF0E0EC5CFC4F21E001C051
:10441000220F6A95EAF7209580812823208308954A
:10442000CF93DF93EC017DD08C1B9D0BDF91CF915F
:104430000895EF92FF920F931F937B018C017DD023
:104440009701A801621B730B840B950B1F910F91B1
:10445000FF90EF90089585B7806885BF85B7806825
:1044600085BF08951F921FB61F9211248F939F93AB
:10447000AF93BF9380913C03811113C08091680377
:1044800090916903A0916A03B0916B034196A11DBD
:10449000B11D8093680390936903A0936A03B0935E
:1044A0006B03BF91AF919F918F911F901FBE1F9083
:1044B000189580917003843031F10E94C5041092E8
:1044C0003C0388E190E020E40FB6F894A89580932F
:1044D00060000FBE2093600083B7817F846083BF3C
:1044E00083B7816083BF7894889583B78E7F83BFBD
:1044F0000FB6F894A8958091600088618093600061
:10450000109260000FBE08950E941E080C94C9040A
:1045100082E084BD93E095BD9AEF97BD80936E00D5
:1045200008952FB7F8948091680390916903A09142
:104530006A03B0916B032FBF08952FB7F894609171
:1045400068037091690380916A0390916B032FBF98
:10455000089578941F921FB61F9211248F939F93F2
:10456000AF93BF938091680390916903A0916A0310
:10457000B0916B030196A11DB11D809368039093C8
:104580006903A0936A03B0936B03BF91AF919F91AE
:104590008F911F901FBE1F90189587E797E7809314
:1045A00000089093010888E19AE00FB6F894A89566
:1045B000809360000FBE90936000FFCF88E19AE087
:1045C0000FB6F894A895809360000FBE909360009A
:1045D000FFCF8EE14A9B02C08150E1F74A9BFECF9C
:1045E00008955A9880E28A95F1F75A9A0895FC0145
:1045F0008BE08A95F1F728E080E090E031E040E13F
:104600004A95F1F7880F4A9B02C08160932742E0E8
:104610004A95F1F7000040E14A95F1F7215079F70A
:1046200020E12A95F1F729B132E03A95F1F700003F
:1046300030E13A95F1F731E022FD93272081920F86
:1046400090830895A1E0B0E0E8E2F3E20C94792BC6
:1046500019828C017C01E60EF11CBBDFCE010196B4
:10466000C6DFF80181938F01EE15FF05B1F781E0F8
:104670009981911180E02196E6E00C94952B529A55
:104680005A9A089552985A9AEA9AE9E6F0E0808197
:104690008F7C808308956150770B91E001C0990F62
:1046A0006A95EAF7692F90E021E0611108C0911541
:1046B00091F05A9A80E28A95F1F75A980895362F28
:1046C000382339F05A9A922730E23A95F1F76695F5
:1046D000ECCF5A98F9CF5A98EDCFFF920F931F93D2
:1046E000CF93DF93EC018C01060F111D8991F82EF9
:1046F00078DF68E08F2DCFDFC017D107B9F7CDB7CE
:10470000DEB7E5E00C94962B1F920F920FB60F9236
:1047100011240F931F932F933F934F935F936F93A6
:104720007F938F939F93AF93BF93EF93FF93CF9319
:10473000DF930F92CDB7DEB719824BDFCE01019622
:1047400056DF082F069506950695282F2295257089
:10475000902F9570920F292F237096959695920F12
:10476000982797708981892B09F055C0043008F08B
:1047700052C080E18A95F1F75A9A529A82E08A955E
:10478000F1F700C05A9888E0089F80011124D801F1
:10479000AB5DBE4F1696ED91FD911897309791F055
:1047A0006091D6017091D70114962D913D91260FFD
:1047B000371F15978D919D91680F791F4C91139715
:1047C0008C910995F801EB5DFE4F6381611549F00D
:1047D0002091D6013091D70184819581820F931F5A
:1047E0007CDFFFDE80E18A95F1F75A9852985A9A59
:1047F00080E18A95F1F7F801EB5DFE4F608161156C
:1048000049F02091D6013091D70181819281820FA8
:10481000931F18DFDEDE0F90DF91CF91FF91EF91B4
:10482000BF91AF919F918F917F916F915F914F91C8
:104830003F912F911F910F910F900FBE0F901F90DE
:1048400018950F931F93CF93DF93EC0104970CF00F
:104850005EC0F894529A5A9885E08A95F1F7000064
:104860009C2F969595708C2F8570980F892F83704B
:1048700096959695292F93E0CC0FDD1F9A95E1F739
:10488000280F822F8C2B082FACDE00C068E0802F11
:1048900002DF80E18A95F1F752985A9A4A9B30C01C
:1048A00087E090E04A992EC0FE01EB5DFE4F6381E8
:1048B000611559F02091D6013091D70184819581FD
:1048C000820F931FBFDE8115F9F083DE80E28A95A7
:1048D000F1F75A98529A80E18A95F1F7CB5DDE4F55
:1048E0006881611549F02091D6013091D701898105
:1048F0009A81820F931FF1DE74DE789481E008C004
:1049000000C0CCCF019749F4529A5A9A789480E02B
:10491000DF91CF911F910F91089500C0C3CF0895EB
:104920009B01BA01909170039430D9F48F708093F9
:10493000E9009FEF8091E80085FD06C085ED8A952E
:10494000F1F700009150B1F78091E80085FF09C0B0
:1049500040E050E0C901EFD18091E8008E7780936C
:10496000E8000895603229F440E250E0BC0182E0A2
:10497000D7CF089543E050E0BC0184E0D1CF46E0BA
:1049800050E0BC0184E0CCCFCF93DF93EC01DDDCC1
:1049900048E050E0BE0181E0C3DF88E0FE01ADE306
:1049A000B3E001900D928A95E1F7DF91CF910895E0
:1049B000A0E2B0E0EDEDF4E2A0C680917003843097
:1049C000F9F483E08093E9008091E80082FF18C049
:1049D0008091E80090E085FF07C040E050E0BD0115
:1049E000CE010196F5D191E08091E8008B7780931C
:1049F000E800911529F060E2CE0101960E9463154E
:104A0000A096E2E096C680916F03811107C06ED335
:104A1000BED38091E20084608093E20008951092FA
:104A20006F03089575DC81E081CC60916C0381E0B7
:104A3000611101C080E05ECC9091700381E0943000
:104A400009F080E060916C0361CC42E061EC81E0B0
:104A5000C9D242E261EC84E0C5D242E261EC82E07C
:104A6000C1D242E260EC83E0BDD29091700381E05C
:104A7000943009F080E060916C0330CC8091720337
:104A8000893081F148F4823009F497C0833009F409
:104A900058C0813041F008958A3009F481C08B30CC
:104AA00009F469C0089580917103813A09F048C002
:104AB0008091E800877F8093E80080917503909152
:104AC0007603892B59F060E080E090E070E0CDD172
:104AD0008091E8008B778093E800089568E08DE38B
:104AE00093E0F4CF80917103813251F58091750389
:104AF000909176038D7F892B19F58091E800877F4F
:104B00008093E8008091E80082FF16C02091F300B6
:104B10008091F200922F029731F48091F100813060
:104B200011F0863019F48091F10012DC8091E800D8
:104B30008B778093E8008AC2809170038111E2CF65
:104B4000089580917103813AD9F78091750390910E
:104B50007603892BA9F78091E800877F8093E8008E
:104B60008091E80080FFFCCFF0DB8093F100809122
:104B7000E8008E77DECF80917103813209F7809152
:104B8000750390917603892BD9F68091E800877F91
:104B90008093E8005BD280917303C8DB0C941E08FD
:104BA00080917103813261F68091E800877F809364
:104BB000E8004CD280917403D9CB80917103813A83
:104BC00009F0BECF8091E800877F8093E800809154
:104BD000E80080FFFCCFD5DBC8CF84B7877F84BFD8
:104BE0000FB6F894A895809160008861809360006A
:104BF000109260000FBE80E890E00FB6F8948093AA
:104C00006100909361000FBE8FCB70D2C0D2E2EEF4
:104C1000F0E080818460808378941CC58AE491E010
:104C20002ECA80917003853029F4809170038530FD
:104C300011F06ACC08953DDCAFDB8115B1F38091B2
:104C40006E03811591F361D00E941E08EECF089586
:104C50009A01409177035091780300C0492F50E0AA
:104C600043305105D1F078F44130510509F448C082
:104C70004230510571F48BE590E041E254E0F901D6
:104C800040835183089541325105E9F04232510584
:104C900039F180E090E040E0F2CF482F50E08130E1
:104CA00061F04230510561F0EDE1F4E0411551054C
:104CB00081F7849190E0AF01E2CFE3E1F4E0F9CF36
:104CC000E7EFF3E0F6CF6330710518F7660F771F53
:104CD000FB01EF51FE4F4081518189E090E0CFCF41
:104CE00063307105B0F6FB01EE0FFF1FE552FE4F7A
:104CF0004081518168527E4FFB01808190E0BFCF9F
:104D000082E190E04CE754E0BACF80E189BD82E1D6
:104D100089BD09B400FEFDCF8091D8008F7D8093BE
:104D2000D8008091E00082608093E0008091E000F4
:104D300081FDFCCF0895AF92BF92CF92DF92FF9298
:104D40000F931F93CF93DF936C01EB018A019DD1E9
:104D5000F82E811123C00115110539F0F801808169
:104D60009181C81BD90BC80ED91EA12CB12C20973C
:104D7000A9F08091E80085FD21C08091E8008E7740
:104D80008093E80001151105A1F0F801808191815F
:104D90008A0D9B1D8083918385E0F82E8F2DDF91F6
:104DA000CF911F910F91FF90DF90CF90BF90AF9068
:104DB00008956BD18115E9F2F82EF0CFF6018191BB
:104DC0006F018093F10021978FEFA81AB80ACFCF17
:104DD000AF92BF92CF92DF92FF920F931F93CF9328
:104DE000DF936C01EB018A0150D1F82E811123C0B1
:104DF0000115110539F0F80180819181C81BD90B8B
:104E0000C80ED91EA12CB12C2097A9F08091E800E2
:104E100085FD21C08091E8008B778093E800011523
:104E20001105A1F0F801808191818A0D9B1D80837D
:104E3000918385E0F82E8F2DDF91CF911F910F91F7
:104E4000FF90DF90CF90BF90AF9008951ED1811555
:104E5000E9F2F82EF0CF8091F100F60181936F0115
:104E600021978FEFA81AB80ACFCFFC0120917703C2
:104E7000309178032617370720F06115710569F026
:104E80009B0190E02115310571F491110CC08091C6
:104E9000E80082FF38C080E008959091E8009E7796
:104EA0009093E800EDCF809170038115C1F18530BA
:104EB000C1F18091E80083FD30C08091E80082FD5F
:104EC000E6CF8091E80080FFDDCF8091F300409134
:104ED000F200582F2115310519F04830510558F0CE
:104EE00091E04830510509F090E04091E8004E779C
:104EF0004093E800C7CF81918093F10021503109A0
:104F00004F5F5F4FE7CF80917003811541F085308F
:104F100041F08091E80083FFBACF81E0089582E0FC
:104F2000089583E00895FC01209177033091780380
:104F30002617370720F06115710569F09B0190E095
:104F40002115310571F491110CC08091E80082FFA8
:104F500039C080E008958091E8008E778093E80062
:104F6000EDCF809170038115C9F18530C9F1809131
:104F7000E80083FD31C08091E80082FDE6CF80919A
:104F8000E80080FFDDCF8091F3004091F200582FC0
:104F90002115310519F04830510558F091E048309D
:104FA000510509F090E08091E8008E778093E80049
:104FB000C7CF84918093F1003196215031094F5F22
:104FC0005F4FE6CF80917003811541F0853041F04D
:104FD0008091E80083FFB9CF81E0089582E00895D1
:104FE00083E00895982F973028F08F708093E90020
:104FF00081E008959093E900242F762F50E09817D0
:1050000031F07091EC002091ED005091F00021FD05
:1050100002C09F5FE8CF3091EB003E7F3093EB0002
:105020003091ED003D7F3093ED003091EB00316029
:105030003093EB007093EC002093ED005093F00060
:105040002091EE0027FDE5CF80E008958091710367
:1050500087FF13C08091E80082FF06C08091E800BE
:105060008B778093E8000895809170038111F2CFCF
:105070000895809170038115D9F38091E80080FF35
:10508000F8CF8091E8008E77ECCF2091E40030914A
:10509000E50095E6A9012091EC00822F817020FFA8
:1050A00006C08091E80080FF06C080E0089520914E
:1050B000E80022FD1AC080917003811589F08530C7
:1050C00089F08091EB0085FD0FC02091E4003091C4
:1050D000E50042175307F9F29150E1F684E0089594
:1050E00082E0089583E0089581E008955FD066D05E
:1050F000E0EEF0E0808181608083E8ED80818F7751
:10510000808319BCA7EDB0E08C918E7F8C93808159
:105110008F7E808310926F030895CF93DF9346D0E4
:105120004DD0C8EDD0E088818F77888388818068F2
:10513000888388818F7D888319BC109270031092B8
:105140006C0310926E0310926D03E0EEF0E080812C
:105150008B7F808388818160888342E060E080E08B
:1051600041DFE1EEF0E080818E7F8083E2EE80819E
:1051700081608083808188608083E0EE80818E7F83
:105180008083888180618883DF91CF910895E8EDE5
:10519000F0E080818F7E8083E7ED80818160808375
:1051A00084E082BF81E080936F03B7CFE8EDF0E049
:1051B00080818E7F80831092E20008951092DA0041
:1051C0001092E10008951F920F920FB60F921124D2
:1051D0002F933F934F935F936F937F938F939F93FF
:1051E000AF93BF93EF93FF938091E10082FF0AC0DA
:1051F0008091E20082FF06C08091E1008B7F809366
:10520000E10027D28091DA0080FF18C08091D80099
:1052100080FF14C08091DA008E7F8093DA00809145
:10522000D90080FF8FC080E189BD82E189BD09B4CA
:1052300000FEFDCF81E080937003E5DB8091E1000B
:1052400080FF18C08091E20080FF14C08091E200CE
:105250008E7F8093E2008091E20080618093E20083
:105260008091D80080628093D80019BC85E080933B
:105270007003DBDB8091E10084FF28C08091E200B5
:1052800084FF24C080E189BD82E189BD09B400FEAC
:10529000FDCF8091D8008F7D8093D8008091E10070
:1052A0008F7E8093E1008091E2008F7E8093E20008
:1052B0008091E20081608093E20080916C0381150F
:1052C00009F445C084E080937003B6DB8091E1006F
:1052D00083FF27C08091E20083FF23C08091E1001B
:1052E000877F8093E10082E08093700310926C03CB
:1052F0008091E1008E7F8093E1008091E2008E7FBB
:105300008093E2008091E20080618093E20042E0BD
:1053100060E080E067DE8091F00088608093F000BC
:1053200081DBFF91EF91BF91AF919F918F917F9121
:105330006F915F914F913F912F910F900FBE0F9002
:105340001F90189519BC1092700369DB77CF80917C
:10535000E30087FF02C083E0B6CF81E0B4CF1F92A5
:105360000F920FB60F9211241F932F933F934F93D9
:105370005F936F937F938F939F93AF93BF93CF93DD
:10538000DF93EF93FF93E9EEF0E080811091EC0062
:105390008F7010FB112717F9182B1082C0EFD0E087
:1053A0008881877F888378941CD0E9EEF0E01082B2
:1053B0008881886088831F701083FF91EF91DF914F
:1053C000CF91BF91AF919F918F917F916F915F919D
:1053D0004F913F912F911F910F900FBE0F901F90F3
:1053E0001895AAE2B0E0E6EFF9E286C181E793E022
:1053F000FC0101962091F100208323E08937920778
:10540000B9F73CDB8091E80083FF37C080917103DE
:10541000909172039A3088F5E92FF0E0E55AF34D48
:1054200056C1803889F0823841F5809175038F70BC
:10543000873018F58093E9008091EB0085FB882781
:1054400080F91092E90006C080916E03880F909158
:105450006D03892B9091E800977F9093E8008093EB
:10546000F1001092F1008091E8008E7722C0811146
:1054700015C080917303813001F18091E80083FFB2
:105480000AC08091E800877F8093E8008091EB005C
:1054900080628093EB00AA96E3E04AC1823069F70C
:1054A00080917303811579F01092E9008091E800F2
:1054B000877F8093E800CADDE0CF933009F080E079
:1054C00080936E03F1CF809175038F70282F215048
:1054D000263098F68093E9002091EB0020FFE4CF7E
:1054E000933031F48091EB0080628093EB00DCCF4D
:1054F0009091EB0090619093EB0021E001C0220FAE
:105500008A95EAF72093EA001092EA008091EB0076
:105510008860EBCF8111B1CF809173038F77182F03
:105520008091E3008078812B8093E3008091E800F4
:10553000877F8093E8008ADD8091E80080FFFCCFC0
:105540008091E30080688093E30083E0111101C043
:1055500082E08093700391CF8058823008F08DCF25
:1055600080917303909174038C3D23E0920789F539
:1055700083E08A838AE289834FB7F894DE01139629
:1055800020E03EE051E2E32FF0E050935700849199
:1055900020FF03C082958F703F5F8F708A30B8F014
:1055A000895C8D931D922F5F243169F74FBF8091E5
:1055B000E800877F8093E8006AE270E0CE01019600
:1055C00054DC8091E8008B778093E80056CF805DB3
:1055D000E8CF6091750370917603AE014F5F5F4F26
:1055E00037DBBC01892B09F448CF9091E800977F05
:1055F0009093E80089819A8196DCE3CF803809F0A6
:105600003CCF8091E800877F8093E80080916C0315
:105610008093F10028CF811130CF909173039230A5
:1056200008F02BCF8091E800877F8093E80090936B
:105630006C030CDD80916C03811529F084E080936C
:10564000700303DA1ACF8091E30087FDF7CF81E082
:10565000F6CF0895CF9380917003811591F08091DA
:10566000E900C091EC008F70C0FBCC27C7F9C82BB4
:105670001092E9008091E80083FDB3DECF70C09303
:10568000E900CF91089532DD109270030895E8ED9E
:10569000F0E08081806180838AE18A95F1F700C023
:1056A0008091D9008170089597FB072E16F400941D
:1056B00006D077FD08D048D007FC05D03EF4909581
:1056C00081959F4F0895709561957F4F0895EE0FD6
:1056D000FF1F0590F491E02D09942F923F924F9275
:1056E0005F926F927F928F929F92AF92BF92CF9272
:1056F000DF92EF92FF920F931F93CF93DF93CDB77B
:10570000DEB7CA1BDB0B0FB6F894DEBF0FBECDBFF2
:1057100009942A88398848885F846E847D848C84C3
:105720009B84AA84B984C884DF80EE80FD800C81CC
:105730001B81AA81B981CE0FD11D0FB6F894DEBFAF
:105740000FBECDBFED010895AA1BBB1B51E107C0E1
:10575000AA1FBB1FA617B70710F0A61BB70B881F01
:10576000991F5A95A9F780959095BC01CD01089590
:10577000FB01DC0104C08D910190801921F441509E
:105780005040C8F7881B990B0895FB01DC0102C04B
:1057900001900D9241505040D8F70895F999FECFED
:1057A00092BD81BDF89A992780B50895A8E1B0E02F
:1057B00042E050E020C0262FF999FECF92BD81BD76
:1057C000F89A019700B4021639F01FBA20BD0FB63F
:1057D000F894FA9AF99A0FBE08950396272FECDFF2
:1057E000EADF252FE9DF242FE7CF0196272FE4DF1B
:1057F000E2CFDC01CB01FC01F999FECF06C0F2BD7E
:10580000E1BDF89A319600B40D9241505040B8F77E
:105810000895F894FFCF4006400677067706CE0637
:10582000EA0668066806EE0660076D076D078815CC
:10583000931597159A159C159E15A015A215A41BD6
:10584000131CAC1B761B7A1BB01B7E1BB41BC01B2E
:105850008A1B0C1C8E1BC41B921BC81BED1B961BAA
:10586000CC1BF41B9C1BD21BDA1B821BB81B861B98
:10587000BC1BA01BD61BE41BFD1B0A1C701BA81B1A
:105880001A1CB31CB81CBA1CBF1CCF1CCF1CCF1CCD
:10589000CF1CCF1CCF1CCF1CCF1CC11CC51CC81CCF
:1058A000CD1CDC1CE21CE61C1A2020200B2014203E
:1058B00026202C203220112A372A3D2A372A3D2A39
:0A58C0008A2AAC2A3D2AFE2A0B2B8F
:1058CA00410300000000003B03407E0000006A0222
:1058DA00C6F7F6F5F43133323693919094669734DD
:1058EA0035FFFFFF0100000001000000000000007A
:1058FA00040100000004050000000000000128085F
:10590A0050011E0A140100000100B321C4248F248F
:10591A00BF24BA24B224F4F5F6F7C69336323331EB
:10592A0097669490913534FFFFFFE200E900EA00A0
:10593A00B500B600B700CD008301CC008A01920100
:10594A0094012102230224022502260227022A02A6
:10595A00B300B4006F0070009F01CB019F02A00248
:10596A00E200E900EA00B500B600B700CD00830105
:10597A00CC008A0192019401210223022402250209
:10598A00260227022A02B300B4006F0070009F01AA
:10599A00CB019F02A002880244227B2B058E04B011
:0859AA000433044C046C0400FA
:00000001FF
